S01700004449595F436861696E5361775F4D382E73726563D6
S113000012C024C023C022C021C020C01FC01EC0F3
S11300101DC01CC01BC01AC019C018C017C016C010
S113002015C014C013C011241FBECFE5D4E0DEBF39
S1130030CDBF10E0A0E6B0E0E2E2F2E002C005903D
S11300400D92A83FB107D9F738D0E9C0D9CF11B87C
S113005080E280B9089584EA86BF06B607FEFDCF24
S113006081B1887F883011F0803181F488E783B9C9
S113007084E886BF06B607FEFDCF91B1987F98311C
S113008039F081E0903429F480E0089581E0089506
S113009080E0089583B984E886BF06B607FEFDCFE5
S11300A091B1987F81E0983209F480E0089584E961
S11300B086BF06B604FCFDCF0895C9DF13D044D033
S11300C08FEA24D080E032D080E03BD000E610E01C
S11300D024E040E260E080E650D0FFCFBCDF80E067
S11300E0D9DF08950F931F93CF93DF93F7DFC0EE0B
S11300F0D0E008EF10E08991CDDFC017D107D9F720
S1130100D6DFDF91CF911F910F910895CF93C82F20
S1130110A2DF8C2FBFDFCBDFE1DF8C2FBBDFC7DF9C
S1130120CF91089598DF80E4B5DF0895CF93C82F69
S11301308F70ECDF8C2F82958F708061E7DFCF9119
S11301400895806BE3DF0895CF93DF93D0E080E0E0
S1130150EDDF8D2FF6DFE6DFC0E080E09BDFCF5FD1
S1130160C038D9F7A4DFDF5FD43089F780E0DEDF61
S113017080E0E7DFDF91CF9108955F926F927F92E5
S11301808F929F92AF92BF92CF92DF92EF92FF92A3
S11301900F931F93CF93DF93582E662E862F90E0F4
S11301A05C01A20EB11C8A159B052CF5C0E0D0E0C1
S11301B0852C912C6401C40ED11C852DB7DF862DAE
S11301C0C0DFB0DF8C149D047CF47801EC0EFD1EBE
S11301D0752C2196F70181917F015CDF7394872D43
S11301E090E08C159D05ACF362DF6394862D90E05E
S11301F08A159B0514F380E099DF80E0A2DFDF918C
S1130200CF911F910F91FF90EF90DF90CF90BF900F
S1130210AF909F908F907F906F905F900895F89427
S1050220FFCF0A
S1130222000080C0F0F0F8FCFC7E3E3F1F1F1F1F41
S11302321F1F1F1F3FBEFEFCFCF8F0F0C080000031
S1130242F8FEFFFFFF0F0301000000000080C0E082
S1130252F0F8FCFE7F3F1F0F07030FFFFFFFFEF8BE
S11302621F7FFFFFFFF0C0E0F0F8FCFE7F3F1F0F8F
S1130272070301000000000080C0F0FFFFFF7F1FA2
S1130282000001030F0F1F3F3F7F7DFCF8F8F8F8D1
S1130292F8F8F8F8FC7C7E3F3F1F0F0F03010000C3
S11302A2AED580A81FD300408D142000A1C8DA0265
S10B02B281CFD9F1DB40A4A6C1
S9030000FC
