:1000000053C077C076C075C074C040C272C071C0A2
:1000100070C06FC06EC06DC06CC06BC06AC0C8A13C
:10002000A81FDA028D14FEFF03FBFBFBFBFBFBFBAF
:10003000FBFB03FBFBFBFBFBFBFBFBFB03FBFBFB00
:10004000FBFBFBFBFBFBFFFF00FFFFFFFFFFFFFFD7
:10005000FFFF00FFFFFFFFFFFFFFFFFF00FFFFFFAE
:10006000FFFFFFFFFFFFFFFF00FFFFFFFFFFFFFF9F
:10007000FFFF00FFFFFFFFFFFFFFFFFF00FFFFFF8E
:10008000FFFFFFFFFFFF7FFFC0DFDFDFDFDFDFDF1F
:10009000DFDFC0DFDFDFDFDFDFDFDFDFC0DFDFDFAE
:1000A000DFDFDFDFDFDF090311241FBECFE5D2E092
:1000B000DEBFCDBF20E0AAE6B0E001C01D92A639A8
:1000C000B207E1F710E0A0E6B0E0EAE6F6E002C031
:1000D00005900D92AA36B107D9F710E0C4E5D0E03B
:1000E00003C02197FE01B9D2C335D107D1F718D289
:1000F000BAC286CFCF92DF92EF92FF920F931F93F7
:10010000CF93DF936C01EB017B01E40EF51E10E051
:1001100000E0CE15DF0561F06991D601ED91FC910B
:100120000190F081E02DC6010995080F191FF1CF4C
:10013000C801DF91CF911F910F91FF90EF90DF9059
:10014000CF9008953FB7F89480918A0090918B00EA
:10015000A0918C00B0918D0022B708B601FE05C0B9
:100160002F3F19F00196A11DB11D3FBFBA2FA92F36
:10017000982F8827BC01CD01620F711D811D911D33
:1001800043E0660F771F881F991F4A95D1F708959E
:10019000E0917F00F09180000994E0917D00F09162
:1001A0007E000994E0918100F091820080918300AB
:1001B000099580E4F2CFCF93C82FEFDF811105C0FE
:1001C000E7DFF0DF8C2FCF91E8CFCF910895E0915A
:1001D0008100F091820080918300099580E0DDCF5D
:1001E0001F93CF93DF93C82F162FD62FD7708091F0
:1001F0006100D82BECDF8D2FD0DF8C2F82958F7094
:100200008061CBDF8C2F8F70C8DFC2DFC093950079
:1002100010939400DF91CF911F9108951F93CF9376
:10022000DF93C0E010E86C2F80E0DADF809195006A
:10023000D12FD81B10939500B5DF80E0BCDFD150E3
:10024000E1F7A6DFCF5FC43071F760E080E0DF91B7
:10025000CF911F91C5CFAF92BF92DF92EF92FF92E5
:100260000F931F93CF93DF93082FCFE1C81BD0E0EC
:10027000219686E2E82E80E0F82E10E0612F802F94
:10028000AFDF90DF5701D02EF501849194DFD39436
:10029000FFEFAF1ABF0A80E2D812F6CF79DF1F5FF7
:1002A000EC0EFD1E143051F760E080E0DF91CF913D
:1002B0001F910F91FF90EF90DF90BF90AF9090CF84
:1002C00080919400860F24E030E0261B31098217CC
:1002D000130609F034F4809394006091940080E058
:1002E0007FCF84E0861BF7CF81E090E00895E09116
:1002F0007C00E13148F4EF5FE0937C00F0E0E659E8
:10030000FF4F808381E0089580E0089510927C0083
:10031000880F80936A000895C09AC29ABA9AB89AD0
:100320008FEF8FB98AE28DB980EF8EB90895C29AA6
:10033000C29BFECF8DE08A95F1F70000C0988AE05D
:100340008A95F1F700C0C298C09A779905C083E0FA
:100350008093840080E0089581E008958EB98BE257
:100360009DE09A95F1F700008DB9B29BFECF9AE01F
:100370009A95F1F700C08DB9769BF2CF8DE08A9502
:10038000F1F700008FB19FEF9FB9B89A0895CF920F
:10039000DF92EF92FF920F931F93CF93DF93009121
:1003A0007C0081E08093840080916A0080FD03C01E
:1003B00083E080938400BBDF882311F10F5F102F4F
:1003C000CAE6D0E0DD24DA94CC24C3947E018FEF1A
:1003D000E81AF80A80918400837009F447C0C29833
:1003E00088818FB980EFBADFB8988EEFB7DF909130
:1003F000840080FF10C081E090FF82E08093840041
:1004000010927C00DF91CF911F910F91FF90EF90A0
:10041000DF90CF900895892F8570843061F48091AA
:100420006A00816080936A00C092840080DF81113D
:1004300029C08AE0E3CF9E7F90938400E7011150AA
:1004400029F610927C00C098C29AB29BFECF8AE037
:100450008A95F1F700C0C09A8DE08A95F1F7000007
:100460007599D0CF84E080938400CCCFB89880EF8A
:1004700075DF8883113021F4DFB88EEF6FDFDECFB8
:100480001FB8FBCF102FCAE6D0E0D9CF1F920F9232
:100490000FB60F9211242F933F938F939F93AF9397
:1004A000BF938091860090918700A0918800B091C1
:1004B00089003091850026E0230F2D3768F129E867
:1004C000230F0396A11DB11D209385008093860004
:1004D00090938700A0938800B093890080918A0050
:1004E00090918B00A0918C00B0918D000196A11D80
:1004F000B11D80938A0090938B00A0938C00B093E1
:100500008D00BF91AF919F918F913F912F910F904F
:100510000FBE0F901F9018950296A11DB11DD4CF4C
:1005200081B781BF8AB582608ABD8AB581608ABD84
:1005300083B7887F836083BF789489B7826089BFDF
:1005400080B7807F80BF80B7806880BF80B78064BD
:1005500080BF8CB580648CBD8FEF8DBD80B7876008
:1005600080BF86B18877866886B9379AE0918E0019
:10057000F0918F0009952BDECEE1D0E0FE01F490E2
:100580008F2D0BDE811104C003DE21DE8F2D05DEF1
:100590002196F0E0C632DF0789F7FADD3FDE17DE8D
:1005A0008FEAFBDDF5DD10E204E038DE80E053DEAB
:1005B00088E051DEC0916000C127C093600007DE73
:1005C0008C2FEBDDE5DD8091610080278093610059
:1005D000B9DDEB0188EEC82E83E0D82EE12CF12C9A
:1005E000B1DD6C1B7D0B683E734068F0C114D10413
:1005F000E104F104D1F281E0C81AD108E108F10860
:10060000C851DC4FEDCFC114D104E104F10441F72E
:10061000CCCFE0E9F0E01382128286E690E091838D
:1006200080838CE3809383008CE891E090938F002B
:1006300080938E0086E891E0909382008093810001
:1006400087E791E090937E0080937D0087EC91E0B6
:100650009093800080937F000895EE0FFF1F059018
:0A066000F491E02D0994F894FFCF07
:0A066A0040B00000000074017A00A7
:00000001FF
