:10000000FDC021C120C1EBC31EC194C31CC11BC1D3
:100010001AC1DAC318C117C116C115C114C1FFFE38
:100020000000000000FFFFFEFEFEFEFCFFFF7F7FE2
:100030007F7F3FFF7F0000000000030303030303F3
:1000400003030303000000000000000000000000A4
:100050000000000000000000C0C0C0C0C0C0C0C0A0
:10006000C0C0FBFBFBFBFBFBFBFBFB03FFFFFFFF3E
:10007000FFFFFFFFFF00FFFFFFFFFFFFFFFFFF008E
:10008000DFDFDFDFDFDFDFDFDFC0FEFF03FBFBFBE8
:10009000FBFBFBFBFBFB03FFFF00FFFFFFFFFFFF83
:1000A000FFFFFF00FFFF00FFFFFFFFFFFFFFFFFF5E
:1000B000007FFFC0DFDFDFDFDFDFDFDFDFC0FEFF6E
:1000C0000303030303030303030303FFFF00000011
:1000D0000000000000000000FFFF00000000000022
:1000E00000000000007FFFC0C0C0C0C0C0C0C0C0D2
:1000F000C0C0C8A1A81FDA028D14FCFE07030303C9
:1001000003030303030383C3E3830303030303031F
:100110000303030303030307FEFCFFFF00000000CB
:10012000040E1E3E3F7F77E3E3C180000000000025
:100130000000000000000000FFFFFFFF00000000C3
:100140000000000000000000010103070F0E1C3832
:1001500070C0800000000000FFFF3F7FE0C0C0C013
:10016000C0C0C0C0C0C0C0C0C0C0C0C0C0C0C0C08F
:10017000C0C0C1C5C4C0C0E07F3F000080C0F0F077
:10018000F8FCFC7E3E3F1F1F1F1F1F1F1F1F3FBE8F
:10019000FEFCFCF8F0F0C0800000F8FEFFFFFF0F4F
:1001A0000301000000000080C0E0F0F8FCFE7F3F8B
:1001B0001F0F07030FFFFFFFFEF81F7FFFFFFFF07A
:1001C000C0E0F0F8FCFE7F3F1F0F070301000000B6
:1001D000000080C0F0FFFFFF7F1F000001030F0F32
:1001E0001F3F3F7F7DFCF8F8F8F8F8F8F8F8FC7C42
:1001F0007E3F3F1F0F0F030100005A0511241FBE51
:10020000CFE5D2E0DEBFCDBF20E0AAE6B0E001C07E
:100210001D92A839B207E1F710E0A0E6B0E0EEE1E8
:10022000FBE002C005900D92AA36B107D9F710E0A5
:10023000CEEFD0E003C02197FE0169D4CD3FD107B6
:10024000D1F7D8D26AC4DCCECF92DF92EF92FF9280
:100250000F931F93CF93DF936C01EB017B01E40EAF
:10026000F51E10E000E0CE15DF0561F06991D601C2
:10027000ED91FC910190F081E02DC6010995080FE8
:10028000191FF1CFC801DF91CF911F910F91FF90FE
:10029000EF90DF90CF9008953FB7F89480918A0057
:1002A00090918B00A0918C00B0918D0022B708B680
:1002B00001FE05C02F3F19F00196A11DB11D3FBFE2
:1002C000BA2FA92F982F8827BC01CD01620F711D6D
:1002D000811D911D43E0660F771F881F991F4A9566
:1002E000D1F70895CF92DF92EF92FF92CF93DF93F1
:1002F0006B017C01D1DFEB01CFDF6C1B7D0B683E16
:100300007340A0F0C114D104E104F10439F4DF9189
:10031000CF91FF90EF90DF90CF90089581E0C81AC1
:10032000D108E108F108C851DC4FE6CFC114D1046F
:10033000E104F10409F7EBCFE0917F00F091800038
:100340000994E0917D00F0917E000994E091810094
:10035000F091820080918300099580E4F2CFCF93E1
:10036000C82FEFDF811105C0E7DFF0DF8C2FCF91C1
:10037000E8CFCF910895E0918100F09182008091C3
:100380008300099580E0DDCF1F93CF93DF93C82FC3
:10039000162FD62FD77080916100D82BECDF8D2FD0
:1003A000D0DF8C2F82958F708061CBDF8C2F8F7088
:1003B000C8DFC2DFC093970010939600DF91CF9102
:1003C0001F910895AF92BF92CF92DF92FF920F9349
:1003D0001F93CF93DF93D82F6A0110E000E0C0E0B5
:1003E000860F9927991F5C016C2F8D2FCDDFAEDF13
:1003F000FD2EFA141B044CF4F601E00FF11F84915A
:10040000AEDFF3940F5F1F4FF4CF96DFCF5FC430A2
:1004100059F760E080E0DF91CF911F910F91FF903D
:10042000DF90CF90BF90AF90AFCF1F93CF93DF936C
:10043000C0E010E86C2F80E0A7DF80919700D12FFB
:10044000D81B1093970082DF80E089DFD150E1F75D
:1004500073DFCF5FC43071F760E080E0DF91CF9150
:100460001F9192CF80919600860F24E030E0261BEA
:1004700031098217130609F034F4809396006091D5
:10048000960080E081CF84E0861BF7CF81E090E08A
:100490000895CF93C091600080E2C827C0936000A8
:1004A0006ADF8C2F4EDF48DF8091610094E089275E
:1004B00080936100CF91089510929000F89410BE3F
:1004C0007894C39865E070E080E090E00BDFC3981B
:1004D00008953699FECF20E290E080E0369A369972
:1004E000FECF34B145B1542F432F840F951F2150B7
:1004F000A9F725E0969587952A95E1F708950FB617
:10050000F894A89581B5886181BD11BC0FBE08958E
:100510000F931F93CF93DF9386B3C1E0D82FD27090
:1005200081FFC0E06AE070E080E090E0DBDE86B34F
:1005300081FB002700F910E0C017110619F0C1E097
:10054000D111C0E08C2FDF91CF911F910F910895B1
:10055000CF93DF93D82F4EEB50E0882311F04AE879
:1005600050E06DE080E02EDFC2E08C2F6AE0C6D262
:10057000875042E650E0DC1710F44AE350E06AE0AE
:1005800021DFCF5FC73089F74EE150E067E08FE3AE
:10059000DF91CF9117CFE0917C00E13148F4EF5F1C
:1005A000E0937C00F0E0E659FF4F808381E00895FE
:1005B00080E0089510927C00880F80936A0008956F
:1005C000C09AC29ABA9AB89A8FEF8FB98AE28DB957
:1005D00080EF8EB90895C29AC29BFECF8DE08A95B6
:1005E000F1F70000C0988AE08A95F1F700C0C29840
:1005F000C09A779905C083E08093840080E00895D5
:1006000081E008958EB98BE29DE09A95F1F70000A4
:100610008DB9B29BFECF9AE09A95F1F700C08DB9E3
:10062000769BF2CF8DE08A95F1F700008FB19FEFB6
:100630009FB9B89A0895CF92DF92EF92FF920F93ED
:100640001F93CF93DF9300917C0081E0809384001F
:1006500080916A0080FD03C083E080938400BBDF4B
:10066000882311F10F5F102FCAE6D0E0DD24DA9461
:10067000CC24C3947E018FEFE81AF80A809184009D
:10068000837009F447C0C29888818FB980EFBADFC0
:10069000B8988EEFB7DF9091840080FF10C081E0A2
:1006A00090FF82E08093840010927C00DF91CF91D4
:1006B0001F910F91FF90EF90DF90CF900895892FB9
:1006C0008570843061F480916A00816080936A0053
:1006D000C092840080DF811129C08AE0E3CF9E7F31
:1006E00090938400E701115029F610927C00C09885
:1006F000C29AB29BFECF8AE08A95F1F700C0C09AF9
:100700008DE08A95F1F700007599D0CF84E0809351
:100710008400CCCFB89880EF75DF8883113021F446
:10072000DFB88EEF6FDFDECF1FB8FBCF102FCAE62A
:10073000D0E0D9CF1F920F920FB60F9211242F93B2
:100740003F938F939F93AF93BF9380918600909137
:100750008700A0918800B09189003091850026E043
:10076000230F2D3768F129E8230F0396A11DB11D32
:10077000209385008093860090938700A093880043
:10078000B093890080918A0090918B00A0918C0099
:10079000B0918D000196A11DB11D80938A009093A8
:1007A0008B00A0938C00B0938D00BF91AF919F916F
:1007B0008F913F912F910F900FBE0F901F90189522
:1007C0000296A11DB11DD4CF1F920F920FB60F92AA
:1007D0001124C39A0F900FBE0F901F9018951F926F
:1007E0000F920FB60F921124C3980F900FBE0F9067
:1007F0001F90189581B781BF8AB582608ABD8AB57E
:1008000081608ABD83B7887F836083BF789489B70E
:10081000826089BF80B7807F80BF80B7806880BFDB
:1008200080B7806480BF8CB580648CBD8FEF8DBD38
:1008300080B7876080BF86B18877866886B9379A27
:10084000C398BB9AB998C19A5ADE82E087B987E803
:1008500086B9369AE0918E00F0918F0009958BDD74
:10086000C2EFD0E0FE011491812F6BDD811104C035
:1008700063DD81DD812F65DD2196F0E0CA3FDF0772
:1008800089F75ADDD2DD80E063DE75DD8FEA59DD60
:1008900053DD8091610094E089278093610062E3D9
:1008A00070E080E090E01EDDC0DD32DE81110BC023
:1008B0004AE751E060E280E685DDEBDD64EF71E060
:1008C00080E090E00FDD24DE811105C064E670E079
:1008D00080E090E0F7CFF89480E181BD8EE081BDAB
:1008E0007894BB24B394DFE51FEF0AE0A895F1DD0F
:1008F000B0E0A0E06C017D0137E0CC0CDD1CEE1C0B
:10090000FF1C3A95D1F786E021E4C21621E8D20611
:1009100021E0E206F10470F584E5C81683E7D80605
:1009200081E0E806F10408F057C084E097E6C916B4
:1009300095E6D90691E0E906F104E0F483E0EAE700
:10094000CE16E7E5DE06E1E0EE06F10498F482E07B
:10095000F3E3CF16FEE4DF06F1E0EF06F10450F416
:1009600081E027EEC21624E4D20621E0E206F1047B
:1009700008F480E090919100981308C09FE7C91691
:1009800096E1D90691E0E906F104C0F48093910064
:10099000DFDD4AE751E0EFE7CE16E6E1DE06E1E013
:1009A000EE06F10410F04AEF50E060E280E60ADD66
:1009B00070DD62E370E080E090E094DCA9DD8823E4
:1009C00069F07ADD2FE7C21626E1D20621E0E206C1
:1009D000F10408F08BCF2BC085E0CCCF8091900044
:1009E000813081F3F894DEBD1BBD00BF89B78066FE
:1009F00089BF78946EE170E080E090E073DCC4E63B
:100A0000A895CEBD69E170E080E090E06BDC61DD2F
:100A1000B0E0A0E027E0880F991FAA1FBB1F2A950E
:100A2000D1F78F379641A140B10580F545DD44DD12
:100A300066DDC39880E08CDD4AE751E060E280E645
:100A4000C1DC27DD6CE271E080E090E04BDCC0E0CF
:100A50006C2F80E099DC809197008A5B80939700EF
:100A600075DCD6E480E07BDCD150E1F765DCCF5F5C
:100A7000C43071F74AE751E060E280E6A3DC09DDAB
:100A800068E572E080E090E02DDCD3CF41DD81119C
:100A9000CDCFCB5FCE3B09F0B3CFF89410BE7894A6
:100AA000C39A65E070E080E090E01CDCC39AB092ED
:100AB00090001CCFE2E9F0E01382128286E690E01B
:100AC000918380838CE38093830080EE92E0909307
:100AD0008F0080938E008AED92E090938200809345
:100AE00081008BEC92E090937E0080937D008BE1FF
:100AF00093E09093800080937F000895002480FD10
:100B0000060E660F11F08695D1F7802D0895EE0F31
:0E0B1000FF1F0590F491E02D0994F894FFCF9B
:0A0B1E0040B0000000004602240170
:00000001FF
