:100000000FC033C032C019C330C02FC22EC02DC0A4
:100010002CC008C32AC029C028C0EBC270C2170474
:1000200011241FBECFE5D2E0DEBFCDBF20E0A8E6A1
:10003000B0E001C01D92A83AB207E1F710E0A0E6D7
:10004000B0E0E4E7F8E002C005900D92A836B107F1
:10005000D9F710E0C0E1D0E003C02197FE0102D43F
:10006000CF30D107D1F7F4D203C4CACFCF92DF92F9
:10007000EF92FF920F931F93CF93DF936C01EB01ED
:100080007B01E40EF51E10E000E0CE15DF0561F007
:100090006991D601ED91FC910190F081E02DC601AE
:1000A0000995080F191FF1CFC801DF91CF911F915A
:1000B0000F91FF90EF90DF90CF9008953FB7F894A5
:1000C0008091A0009091A100A091A200B091A30006
:1000D00022B708B601FE05C02F3F19F00196A11DF9
:1000E000B11D3FBFBA2FA92F982F8827BC01CD0182
:1000F000620F711D811D911D43E0660F771F881FE0
:10010000991F4A95D1F70895CF92DF92EF92FF920F
:10011000CF93DF936B017C01D1DFEB01CFDF6C1B51
:100120007D0B683E7340A0F0C114D104E104F104DA
:1001300039F4DF91CF91FF90EF90DF90CF90089549
:1001400081E0C81AD108E108F108C851DC4FE6CFB8
:10015000C114D104E104F10409F7EBCFE09194005C
:10016000F09195000994E0919200F0919300099428
:10017000E0919000F09191000994CF93DF93C82F04
:10018000D62FF6DF80E0EFDF8D2F8770806BEBDFFF
:100190008C2F82958F708061E6DF8C2F8F70E3DF6C
:1001A000DDDFC093A700D093A600DF91CF91089523
:1001B0008091A600860F24E030E0261B31098217CB
:1001C000130609F034F48093A6006091A60080E045
:1001D000D4CF84E0861BF7CF81E090E008951092A1
:1001E000A400F89410BE7894C39865E070E080E0B5
:1001F00090E08ADFC39808953699FECF20E290E020
:1002000080E0369A3699FECF34B145B1542F432F52
:10021000840F951F2150A9F725E0969587952A957B
:10022000E1F708950FB6F894A89581B5886181BD6E
:1002300011BC0FBE08950F931F93CF93DF9386B326
:10024000C1E0D82FD27081FFC0E06AE070E080E0AA
:1002500090E05ADF86B381FB002700F910E0C01759
:10026000110619F0C1E0D111C0E08C2FDF91CF91C0
:100270001F910F91089590918900992399F0909181
:100280008B00903238F590918A00E92FF0E0E85920
:10029000FF4F808381E0890F80938A0080938B00D9
:1002A00081E0089520919900909198002F5F921B12
:1002B0009F7081F0909199009F5F9F7020919800AE
:1002C0009217E1F3E92FF0E0E858FF4F8083909315
:1002D0009900E6CF80E0089581E08093890098E757
:1002E0009093680080938A0080938B0008958EB964
:1002F0008BE29EE09A95F1F78DB9B29BFECF96E026
:100300009A95F1F700C08DB9769BF3CF8EE08A9570
:10031000F1F78FB19FEF9FB9B89A08950F931F938C
:10032000CF93DF93C0918B0081E080938800809110
:10033000680080FD03C083E080938800C29AB29B6E
:10034000FECF86E08A95F1F700C0C098E6E0EA9516
:10035000F1F700C0C298C09A77991CC087E08093DB
:10036000880080E010928A0010928B001092890021
:1003700081115CC080918800853009F453C08630BB
:1003800009F456C0813009F04FC0DF91CF911F9121
:100390000F91089508E610E0DFEF809188008370E8
:1003A000A1F1C298F80180818FB980EFA0DFB898E1
:1003B0008EEF9DDF80FF0CC090918800892F8170A7
:1003C00090FF02C086E0CBCF95E090938800CACF23
:1003D000809188008E7F80938800C1500F5F1F4FEF
:1003E000C111DBCFC098C29AB29BFECFF6E0FA955E
:1003F000F1F700C0C09A8EE08A95F1F7759903C0B5
:1004000088E08093880081E0ADCFB89880EF6FDFFF
:10041000F8018083C13021F4DFB98EEF68DFDDCFD2
:100420001FB8FBCF83E0B1CF84E0AFCF80E0ADCF8A
:1004300082E0ABCF10928A0010928B00109289005C
:10044000C09AC29ABA9AB89A8FEF8FB98AE28DB9D8
:1004500080EF8EB941DF62DF882331F06AE070E01F
:1004600080E090E051DEF6CF08951F920F920FB614
:100470000F9211242F933F938F939F93AF93BF932A
:1004800080919C0090919D00A0919E00B0919F0052
:1004900030919B0026E0230F2D3768F129E8230FC8
:1004A0000396A11DB11D20939B0080939C00909307
:1004B0009D00A0939E00B0939F008091A00090911A
:1004C000A100A091A200B091A3000196A11DB11DB1
:1004D0008093A0009093A100A093A200B093A300EA
:1004E000BF91AF919F918F913F912F910F900FBE30
:1004F0000F901F9018950296A11DB11DD4CF1F9289
:100500000F920FB60F9211242F938F939F93EF9317
:10051000FF9380919A00823009F45EC078F48823BA
:1005200049F1813009F43EC0FF91EF919F918F9185
:100530002F910F900FBE0F901F901895843009F4E3
:1005400051C048F1853081F784E080939A009FB1D3
:10055000809197008F5F8F7020919600281709F483
:1005600046C080939700E0919700F0E0E859FF4F74
:1005700090830BC08FB1882319F08FB1869571F4E9
:10058000789B07C081E080939A001FB8B89A8EE7E5
:1005900021C084E0F8CF8FB1882321F0B89888EA91
:1005A0008DB917C080919800909199009817B1F378
:1005B000809198008F5F8F7080939800E0919800F1
:1005C000F0E0E858FF4F80818FB982E080939A0075
:1005D000B89A80E78EB9A8CF83E080939A00B89844
:1005E0001FB8D5CF85E080939A00B898F2CFB8981D
:1005F000CECF1F920F920FB60F9211248F931092AD
:100600009A00B898B29B04C0B09BFCCF88EA01C0A6
:1006100088EF8DB980EF8EB98F910F900FBE0F903C
:100620001F9018951F920F920FB60F921124C39A24
:100630000F900FBE0F901F9018951F920F920FB63C
:100640000F921124C3980F900FBE0F901F90189512
:1006500081B781BF78948AB582608ABD8AB581608E
:100660008ABD83B7887F836083BF789489B78260AF
:1006700089BF80B7807F80BF80B7806880BF80B728
:10068000806480BF8CB580648CBD8FEF8DBD80B7DA
:10069000876080BF86B18877866886B9379AC398A5
:1006A000BB9AB998C19ABEDD82E087B987E886B95E
:1006B000369AC1DD811106C064E670E080E090E00A
:1006C00023DDF7CFF89488E181BD8EE081BD789479
:1006D000BB24B394DBE41FEF0AE0A8958DDDB0E006
:1006E000A0E06C017D0137E0CC0CDD1CEE1CFF1C92
:1006F0003A95D1F786E021E4C21621E8D20621E03E
:10070000E206F10468F584E5C81683E7D80681E0BF
:10071000E806F10408F045C084E097E6C91695E6BE
:10072000D90691E0E906F104D8F483E02AE7C2167D
:1007300027E5D20621E0E206F10490F483E3C8162F
:100740008EE4D80681E0E806F10468F581E097EED2
:10075000C91694E4D90691E0E906F10408F480E0B2
:100760009091A500981308C02FE7C21626E1D20683
:1007700021E0E206F10438F48093A50062E370E022
:1007800080E090E0C1DC57DD882379F028DD8FE739
:10079000C81686E1D80681E0E806F10408F09DCF8E
:1007A0002DC085E0DDCF82E0DBCF8091A4008130D9
:1007B00071F3F894DEBD1BBD00BF89B7806689BFA9
:1007C00078946EE170E080E090E09EDCC0E5A89552
:1007D000CEBD69E170E080E090E096DC0DDDB0E038
:1007E000A0E027E0880F991FAA1FBB1F2A95D1F709
:1007F0008F379641A140B10528F4F1DCF0DC12DD21
:10080000C398FECF18DD882311F0E9DC66CFCA5FFC
:10081000C23CE9F6F89410BE7894C39A65E070E0A3
:1008200080E090E071DCC39AB092A40056CFECE86F
:10083000F0E01382128284E690E0918380838CE65C
:1008400091E090939100809390008BE391E09093DE
:100850009300809392008EE891E0909395008093AE
:1008600094000895EE0FFF1F0590F491E02D099478
:04087000F894FFCF2A
:0808740000000000EC0036005A
:00000001FF
