:10000000FDC021C120C1B7C41EC1CDC31CC11BC1CD
:100010001AC1A6C418C117C116C189C40EC4FFFEF7
:100020000000000000FFFFFEFEFEFEFCFFFF7F7FE2
:100030007F7F3FFF7F0000000000030303030303F3
:1000400003030303000000000000000000000000A4
:100050000000000000000000C0C0C0C0C0C0C0C0A0
:10006000C0C0FBFBFBFBFBFBFBFBFB03FFFFFFFF3E
:10007000FFFFFFFFFF00FFFFFFFFFFFFFFFFFF008E
:10008000DFDFDFDFDFDFDFDFDFC0FEFF03FBFBFBE8
:10009000FBFBFBFBFBFB03FFFF00FFFFFFFFFFFF83
:1000A000FFFFFF00FFFF00FFFFFFFFFFFFFFFFFF5E
:1000B000007FFFC0DFDFDFDFDFDFDFDFDFC0FEFF6E
:1000C0000303030303030303030303FFFF00000011
:1000D0000000000000000000FFFF00000000000022
:1000E00000000000007FFFC0C0C0C0C0C0C0C0C0D2
:1000F000C0C0C8A1A81FDA028D14FCFE07030303C9
:1001000003030303030383C3E3830303030303031F
:100110000303030303030307FEFCFFFF00000000CB
:10012000040E1E3E3F7F77E3E3C180000000000025
:100130000000000000000000FFFFFFFF00000000C3
:100140000000000000000000010103070F0E1C3832
:1001500070C0800000000000FFFF3F7FE0C0C0C013
:10016000C0C0C0C0C0C0C0C0C0C0C0C0C0C0C0C08F
:10017000C0C0C1C5C4C0C0E07F3F000080C0F0F077
:10018000F8FCFC7E3E3F1F1F1F1F1F1F1F1F3FBE8F
:10019000FEFCFCF8F0F0C0800000F8FEFFFFFF0F4F
:1001A0000301000000000080C0E0F0F8FCFE7F3F8B
:1001B0001F0F07030FFFFFFFFEF81F7FFFFFFFF07A
:1001C000C0E0F0F8FCFE7F3F1F0F070301000000B6
:1001D000000080C0F0FFFFFF7F1F000001030F0F32
:1001E0001F3F3F7F7DFCF8F8F8F8F8F8F8F8FC7C42
:1001F0007E3F3F1F0F0F030100002C0611241FBE7E
:10020000CFE5D2E0DEBFCDBF20E0AAE6B0E001C07E
:100210001D92AC3AB207E1F710E0A0E6B0E0ECEBDB
:10022000FCE002C005900D92AA36B107D9F710E0A4
:10023000CEEFD0E003C02197FE0138D5CD3FD107E6
:10024000D1F7A4D339C5DCCECF92DF92EF92FF92E3
:100250000F931F93CF93DF936C01EB017B01E40EAF
:10026000F51E10E000E0CE15DF0561F06991D601C2
:10027000ED91FC910190F081E02DC6010995080FE8
:10028000191FF1CFC801DF91CF911F910F91FF90FE
:10029000EF90DF90CF9008953FB7F89480919E0043
:1002A00090919F00A091A000B091A10022B708B644
:1002B00001FE05C02F3F19F00196A11DB11D3FBFE2
:1002C000BA2FA92F982F8827BC01CD01620F711D6D
:1002D000811D911D43E0660F771F881F991F4A9566
:1002E000D1F70895CF92DF92EF92FF92CF93DF93F1
:1002F0006B017C01D1DFEB01CFDF6C1B7D0B683E16
:100300007340A0F0C114D104E104F10439F4DF9189
:10031000CF91FF90EF90DF90CF90089581E0C81AC1
:10032000D108E108F108C851DC4FE6CFC114D1046F
:10033000E104F10409F7EBCFE0919000F091910016
:100340000994E0918E00F0918F000994E091920061
:10035000F0919300099580E4F4CFCF93C82FF1DF9B
:10036000811105C0E9DFF2DF8C2FCF91EACFCF9169
:100370000895E0919200F0919300099580E0E1CF1B
:100380001F93CF93DF93C82F162FD62FD77080914E
:100390006100D82BEEDF8D2FD4DF8C2F82958F70EC
:1003A0008061CFDF8C2F8F70CCDFC6DFC093AB00B6
:1003B0001093AA00DF91CF911F9108958F929F9281
:1003C000AF92BF92CF92DF92EF92FF920F931F9363
:1003D000CF93DF93D82FD62E4A0110E000E06817A4
:1003E00018F0062F081B10E0F12CE12CC0E06C2F58
:1003F0008D2FC6DFABDF5701CD2ECD1450F4F401A5
:10040000EA0DFB1D8491A9DFC3948FEFA81AB80AE7
:10041000F4CF92DFCF5FE00EF11EC43041F760E011
:1004200080E0DF91CF911F910F91FF90EF90DF90CF
:10043000CF90BF90AF909F908F90A2CF0F931F93BC
:10044000CF93DF93C0E010E86C2F80E099DF8091BC
:10045000AB00012F081B51F01093AB0077DFD0E009
:1004600080E07BDFDF5F0D13FBCF66DFCF5FC43043
:1004700059F760E080E0DF91CF911F910F9180CF1D
:100480008091AA00860F24E030E0261B31098217F4
:10049000130609F034F48093AA006091AA0080E06A
:1004A0006FCF84E0861BF7CF81E090E00895CF9373
:1004B000C091600080E2C827C09360005ADF8C2F93
:1004C00040DF3ADF8091610094E0892780936100EA
:1004D000CF9108951092A400F89410BE7894C39818
:1004E00065E070E080E090E0FDDEC3980895369905
:1004F000FECF20E290E080E0369A3699FECF34B10C
:1005000045B1542F432F840F951F2150A9F725E0A3
:10051000969587952A95E1F708950FB6F894A895D2
:1005200081B5886181BD11BC0FBE08950F931F93E3
:10053000CF93DF9386B3C1E0D82FD27081FFC0E0A4
:100540006AE070E080E090E0CDDE86B381FB0027BA
:1005500000F910E0C017110619F0C1E0D111C0E098
:100560008C2FDF91CF911F910F910895CF93DF933F
:10057000D82F4EEB50E0882311F04AE850E06DE0B0
:1005800080E01CDFC2E08C2F6AE087D3875042E610
:1005900050E0DC1710F44AE350E06AE00FDFCF5F71
:1005A000C73089F74EE150E067E08FE3DF91CF91EC
:1005B00005CF90918B00992399F090918D00903206
:1005C00038F590918C00E92FF0E0E659FF4F8083D9
:1005D00081E0890F80938C0080938D0081E00895E5
:1005E00020919700909196002F5F921B9F7081F051
:1005F000909197009F5F9F70209196009217E1F372
:10060000E92FF0E0E658FF4F808390939700E6CF04
:1006100080E0089581E080938B0098E790936A00D2
:1006200080938C0080938D0008958EB98BE29EE0BC
:100630009A95F1F78DB9B29BFECF96E09A95F1F7B6
:1006400000C08DB9769BF3CF8EE08A95F1F78FB11C
:100650009FEF9FB9B89A08950F931F93CF93DF939D
:10066000C0918D0081E080938A0080916A0080FDB6
:1006700003C083E080938A00C29AB29BFECF86E0DB
:100680008A95F1F700C0C098E6E0EA95F1F700C05E
:10069000C298C09A77991CC087E080938A0080E056
:1006A00010928C0010928D0010928B0081115CC012
:1006B00080918A00853009F453C0863009F456C011
:1006C000813009F04FC0DF91CF911F910F910895B4
:1006D0000AE610E0DFEF80918A008370A1F1C298F2
:1006E000F80180818FB980EFA0DFB8988EEF9DDF91
:1006F00080FF0CC090918A00892F817090FF02C00A
:1007000086E0CBCF95E090938A00CACF80918A0093
:100710008E7F80938A00C1500F5F1F4FC111DBCFC6
:10072000C098C29AB29BFECFF6E0FA95F1F700C0EE
:10073000C09A8EE08A95F1F7759903C088E080939E
:100740008A0081E0ADCFB89880EF6FDFF801808339
:10075000C13021F4DFB98EEF68DFDDCF1FB8FBCFEA
:1007600083E0B1CF84E0AFCF80E0ADCF82E0ABCF0C
:1007700010928C0010928D0010928B00C09AC29A39
:10078000BA9AB89A8FEF8FB98AE28DB980EF8EB995
:1007900041DF62DF882331F06AE070E080E090E0C2
:1007A000A1DDF6CF08951F920F920FB60F9211247C
:1007B0002F933F938F939F93AF93BF9380919A0012
:1007C00090919B00A0919C00B0919D003091990068
:1007D00026E0230F2D3768F129E8230F0396A11D8A
:1007E000B11D2093990080939A0090939B00A09351
:1007F0009C00B0939D0080919E0090919F00A091DD
:10080000A000B091A1000196A11DB11D80939E0092
:1008100090939F00A093A000B093A100BF91AF91CF
:100820009F918F913F912F910F900FBE0F901F902E
:1008300018950296A11DB11DD4CF1F920F920FB62D
:100840000F9211242F938F939F93EF93FF93809197
:100850009800823009F45EC078F4882349F1813031
:1008600009F43EC0FF91EF919F918F912F910F90CE
:100870000FBE0F901F901895843009F451C048F1B5
:10088000853081F784E0809398009FB18091950036
:100890008F5F8F7020919400281709F446C08093D1
:1008A0009500E0919500F0E0E659FF4F90830BC072
:1008B0008FB1882319F08FB1869571F4789B07C0AA
:1008C00081E0809398001FB8B89A8EE721C084E039
:1008D000F8CF8FB1882321F0B89888EA8DB917C076
:1008E00080919600909197009817B1F380919600AF
:1008F0008F5F8F7080939600E0919600F0E0E6584D
:10090000FF4F80818FB982E080939800B89A80E78A
:100910008EB9A8CF83E080939800B8981FB8D5CF40
:1009200085E080939800B898F2CFB898CECF1F9208
:100930000F920FB60F9211248F9310929800B898CF
:10094000B29B04C0B09BFCCF88EA01C088EF8DB990
:1009500080EF8EB98F910F900FBE0F901F9018955A
:100960001F920F920FB60F921124C39A0F900FBED1
:100970000F901F9018951F920F920FB60F9211248F
:10098000C3980F900FBE0F901F90189581B781BF2D
:1009900078948AB582608ABD8AB581608ABD83B742
:1009A000887F836083BF789489B7826089BF80B76E
:1009B000807F80BF80B7806880BF80B7806480BF41
:1009C0008CB580648CBD8FEF8DBD80B7876080BF94
:1009D00086B18877866886B9379AC398BB9AB998E2
:1009E000C19A9BDD82E087B987E886B9369AE091A3
:1009F000A200F091A3000995BCDCC2EFD0E04AEF61
:100A0000E42E40E0F42EFE011491812F9ADC811136
:100A100004C092DCAEDC812F94DC2196EC16FD063E
:100A200091F78ADC0BDD80E0A1DDA3DC8FEA89DCB5
:100A300083DC8091610094E089278093610062E308
:100A400070E080E090E04EDCF9DC70DD81110BC0DD
:100A50004AE751E060E280E6B1DC29DD64EF71E055
:100A600080E090E03FDC62DD811105C064E670E06B
:100A700080E090E0F7CFF89480E181BD8EE081BD09
:100A80007894BB24B394DFE51FEF0AE0A8952FDD2F
:100A9000B0E0A0E06C017D0137E0CC0CDD1CEE1C69
:100AA000FF1C3A95D1F786E0F1E4CF16F1E8DF06B6
:100AB000F1E0EF06F10470F585E024E5C21623E7C6
:100AC000D20621E0E206F10428F587E6C81685E69D
:100AD000D80681E0E806F10408F04EC083E09AE70A
:100AE000C91697E5D90691E0E906F10498F482E089
:100AF000E3E3CE16EEE4DE06E1E0EE06F10450F4A8
:100B000081E0F7EECF16F4E4DF06F1E0EF06F10442
:100B100008F480E09091A500981308C02FE7C21652
:100B200026E1D20621E0E206F104C0F48093A5009C
:100B30001DDD4AE751E08FE7C81686E1D80681E05F
:100B4000E806F10410F04AEF50E060E280E636DC9F
:100B5000AEDC62E370E080E090E0C4DBE7DC882399
:100B600069F0B8DCFFE7CF16F6E1DF06F1E0EF064B
:100B7000F10408F08BCF2BC084E0CCCF8091A4008F
:100B8000813081F3F894DEBD1BBD00BF89B780665C
:100B900089BF78946EE170E080E090E0A3DBC4E66A
:100BA000A895CEBD69E170E080E090E09BDB9FDC22
:100BB000B0E0A0E027E0880F991FAA1FBB1F2A956D
:100BC000D1F78F379641A140B10580F583DC82DCF7
:100BD000A4DCC39880E0CADC4AE751E060E280E62A
:100BE000EDDB65DC6CE271E080E090E07BDBC0E097
:100BF0006C2F80E0C5DB8091AB008A5B8093AB00FB
:100C0000A5DBD6E480E0A9DBD150E1F795DBCF5F2F
:100C1000C43071F74AE751E060E280E6CFDB47DCA1
:100C200068E572E080E090E05DDBD3CF7FDC882375
:100C300011F050DC2BCFCB5FCE3B09F0B1CFF89455
:100C400010BE7894C39A65E070E080E090E04ADBE3
:100C5000C39AB092A4001ACFE6EAF0E0138212829F
:100C600086E690E09183808388EB93E09093A300E5
:100C70008093A2008AE093E0909393008093920087
:100C800089ED92E090938F0080938E008CE293E048
:100C900090939100809390000895002480FD060EAB
:100CA000660F11F08695D1F7802D0895EE0FFF1F86
:0C0CB0000590F491E02D0994F894FFCF1A
:0A0CBC0040B00000000054022401C3
:00000001FF
