:10000000F5C319C418C44FC716C4EEC614C413C42C
:1000100012C434C710C40FC40EC40DC40CC40000F5
:1000200000000000000000000000000000000000D0
:1000300000F8000000000000003330000000001055
:100040000C06100C0600000000000000000040C07C
:100050007840C0784000043F04043F04040000706E
:1000600088FC08300000001820FF211E0000F00866
:10007000F000E018000000211C031E211E0000F00B
:100080000888700000001E21232419272110101653
:100090000E00000000000000000000000000000052
:1000A00000E01804020000000007182040000002D1
:1000B0000418E00000000040201807000000404045
:1000C00080F0804040000202010F010202000000A7
:1000D00000F0000000000101011F0101010000000B
:1000E00000000000000080B0700000000000000070
:1000F00000000000000000010101010101010000F9
:10010000000000000000003030000000000000008F
:10011000000080601804006018060100000000E084
:1001200010080810E000000F102020100F00001031
:1001300010F8000000000020203F20200000007088
:100140000808088870000030282422213000003080
:100150000888884830000018202020110E00000078
:10016000C02010F8000000070424243F240000F8F9
:100170000888880808000019212020110E0000E0DE
:10018000108888180000000F112020110E00003880
:100190000808C83808000000003F00000000007098
:1001A000880808887000001C222121221C0000E021
:1001B00010080810E0000000312222110F0000009A
:1001C00000C0C0000000000000303000000000004F
:1001D00000800000000000008060000000000000BF
:1001E0008040201008000001020408102000404058
:1001F000404040404000040404040404040000089B
:10020000102040800000002010080402010000704F
:1002100048080808F0000000003036010000C03037
:10022000C828E810E0000718272423140B0000005A
:10023000C038E0000000203C23020227382008F8E4
:10024000888888700000203F202020110E00C030D8
:10025000080808083800071820202010080008F8AF
:1002600008080810E000203F202020100F0008F8A8
:100270008888E8081000203F20202320180008F874
:100280008888E8081000203F200003000000C030EC
:1002900008080838000007182020221E020008F86D
:1002A00008000008F808203F210101213F20000834
:1002B00008F8080800000020203F2020000000006F
:1002C0000808F8080800C08080807F00000008F857
:1002D00088C028180800203F20012638200008F890
:1002E000080000000000203F20202020300008F8F7
:1002F000F800F8F80800203F003F003F200008F811
:1003000030C00008F808203F200007183F00E01028
:1003100008080810E0000F10202020100F0008F837
:1003200008080808F000203F210101010000E0104A
:1003300008080810E0000F18242438504F0008F86F
:10034000888888887000203F2000030C30200070CF
:100350008808080838000038202121221C001808CD
:1003600008F8080818000000203F2000000008F8E6
:1003700008000008F808001F202020201F0008782F
:10038000880000C83808000007380E010000F8088F
:1003900000F80008F800033C0700073C03000818B9
:1003A00068808068180820302C03032C302008381F
:1003B000C800C83808000000203F200000001008D6
:1003C0000808C8380800203826212020180000001E
:1003D00000FE020202000000007F40404000000CCE
:1003E00030C000000000000000010638C00000021C
:1003F0000202FE000000004040407F0000000000BC
:1004000004020202040000000000000000000000DE
:1004100000000000000080808080808080800002DA
:1004200002040000000000000000000000000000C6
:100430008080808000000019242222223F2008F8BA
:10044000008080000000003F112020110E000000FD
:10045000008080800000000E11202020110000008C
:1004600000808088F800000E112020103F2000003E
:10047000808080800000001F222222221300008042
:1004800080F0888888180020203F2020000000008D
:10049000808080808000006B94949493600008F8C2
:1004A000008080800000203F210000203F2000804D
:1004B0009898000000000020203F2020000000004D
:1004C00000809898000000C08080807F000008F8BD
:1004D000000080808000203F24022D302000000892
:1004E00008F8000000000020203F2020000080804D
:1004F000808080808000203F20003F20003F80805F
:10050000008080800000203F210000203F2000006C
:10051000808080800000001F202020201F0080801D
:1005200000808000000080FFA12020110E0000004C
:10053000008080808000000E112020A0FF8080803D
:1005400080008080800020203F21200001000000EA
:1005500080808080800000332424242419000080BF
:1005600080E0808000000000001F202000008080CC
:10057000000000808000001F202020103F2080808D
:1005800080000080808000010E300806010080801D
:100590000080008080800F300C030C300F00008042
:1005A0008000808080000020312E0E31200080806D
:1005B00080000080808080818E701806010000809D
:1005C0008080808080000021302C222130000000BB
:1005D0000000807C020200000000003F404000005C
:1005E0000000FF00000000000000FF00000000020B
:1005F000027C800000000040403F00000000000638
:100600000101020204040000000000000000FFFEDF
:100610000000000000FFFFFEFEFEFEFCFFFF7F7FEC
:100620007F7F3FFF7F0000000000030303030303FD
:1006300003030303000000000000000000000000AE
:100640000000000000000000C0C0C0C0C0C0C0C0AA
:10065000C0C0FBFBFBFBFBFBFBFBFB03FFFFFFFF48
:10066000FFFFFFFFFF00FFFFFFFFFFFFFFFFFF0098
:10067000DFDFDFDFDFDFDFDFDFC0FEFF03FBFBFBF2
:10068000FBFBFBFBFBFB03FFFF00FFFFFFFFFFFF8D
:10069000FFFFFF00FFFF00FFFFFFFFFFFFFFFFFF68
:1006A000007FFFC0DFDFDFDFDFDFDFDFDFC0FEFF78
:1006B0000303030303030303030303FFFF0000001B
:1006C0000000000000000000FFFF0000000000002C
:1006D00000000000007FFFC0C0C0C0C0C0C0C0C0DC
:1006E000C0C0C8A1A81FDA028D14000080C0F0F0BD
:1006F000F8FCFC7E3E3F1F1F1F1F1F1F1F1F3FBE1A
:10070000FEFCFCF8F0F0C0800000F8FEFFFFFF0FD9
:100710000301000000000080C0E0F0F8FCFE7F3F15
:100720001F0F07030FFFFFFFFEF81F7FFFFFFFF004
:10073000C0E0F0F8FCFE7F3F1F0F07030100000040
:10074000000080C0F0FFFFFF7F1F000001030F0FBC
:100750001F3F3F7F7DFCF8F8F8F8F8F8F8F8FC7CCC
:100760007E3F3F1F0F0F03010000FCFE0703030342
:1007700003030303030383C3E383030303030303A9
:100780000303030303030307FEFCFFFF0000000055
:10079000040E1E3E3F7F77E3E3C1800000000000AF
:1007A0000000000000000000FFFFFFFF000000004D
:1007B0000000000000000000010103070F0E1C38BC
:1007C00070C0800000000000FFFF3F7FE0C0C0C09D
:1007D000C0C0C0C0C0C0C0C0C0C0C0C0C0C0C0C019
:1007E000C0C0C1C5C4C0C0E07F3F4C0811241FBEBB
:1007F000CFE5D2E0DEBFCDBF20E0A0E7B0E001C092
:100800001D92A23AB207E1F710E0A0E6B0E0E8E6F8
:10081000F1E102C005900D92A037B107D9F713E0BE
:10082000C6EFD3E003C02197FE0196D4C53FD107A0
:10083000D1F74ED397C4E4CBCF92DF92EF92FF92E1
:100840000F931F93CF93DF936C01EB017B01E40EB9
:10085000F51E10E000E0CE15DF0561F06991D601CC
:10086000ED91FC910190F081E02DC6010995080FF2
:10087000191FF1CFC801DF91CF911F910F91FF9008
:10088000EF90DF90CF9008953FB7F894809190005B
:1008900090919100A0919200B091930022B708B678
:1008A00001FE05C02F3F19F00196A11DB11D3FBFEC
:1008B000BA2FA92F982F8827BC01CD01620F711D77
:1008C000811D911D43E0660F771F881F991F4A9570
:1008D000D1F70895CF92DF92EF92FF92CF93DF93FB
:1008E0006B017C01D1DFEB01CFDF6C1B7D0B683E20
:1008F0007340A0F0C114D104E104F10439F4DF9194
:10090000CF91FF90EF90DF90CF90089581E0C81ACB
:10091000D108E108F108C851DC4FE6CFC114D10479
:10092000E104F10409F7EBCFE0918500F091860036
:100930000994E0918300F09184000994E09187008C
:10094000F091880080918900099580E4F2CFCF93DF
:10095000C82FEFDF811105C0E7DFF0DF8C2FCF91CB
:10096000E8CFCF910895E0918700F09188008091C1
:100970008900099580E0DDCF1F93CF93DF93C82FC7
:10098000162FD62FD77080916100D82BECDF8D2FDA
:10099000D0DF8C2F82958F708061CBDF8C2F8F7092
:1009A000C8DFC2DFC093A1001093A000DF91CF91F8
:1009B0001F910895AF92BF92CF92DF92FF920F9353
:1009C0001F93CF93DF93D82F6A0110E000E0C0E0BF
:1009D000860F9927991F5C016C2F8D2FCDDFAEDF1D
:1009E000FD2EFA141B044CF4F601E00FF11F849164
:1009F000AEDFF3940F5F1F4FF4CF96DFCF5FC430AD
:100A000059F760E080E0DF91CF911F910F91FF9047
:100A1000DF90CF90BF90AF90AFCF1F93CF93DF9376
:100A2000C0E010E86C2F80E0A7DF8091A100D12FFB
:100A3000D81B1093A10082DF80E089DFD150E1F75D
:100A400073DFCF5FC43071F760E080E0DF91CF915A
:100A50001F9192CF8091A000860F24E030E0261BEA
:100A600031098217130609F034F48093A0006091D5
:100A7000A00080E081CF84E0861BF7CFBF92CF92A9
:100A8000DF92EF92FF920F931F93CF93DF93E0914A
:100A90009400F0919500309741F06D3031F0D62FF1
:100AA000C3816A3071F46C2FD5DF81E090E0DF9173
:100AB000CF911F910F91FF90EF90DF90CF90BF905B
:100AC0000895B2804091A100EB2CF12C20E830E099
:100AD0002E193F094217130619F014F06C2FBADFD4
:100AE000E0919400F091950024818C2F90E0B70163
:100AF00000D3BC014D2F421B550BCA01FAD28C0109
:100B0000DC2F1CDFC801282F201B2B1588F46C015B
:100B10005FEFC51AD50AE0919400F091950001901D
:100B2000F081E02DE80FF91F849111DFC601EBCFB2
:100B30000E0D1F1DF9DE8091A100C13031F48B0D27
:100B40008093A100D150E9F6B0CF6091A0006F5F13
:100B5000D23010F011DFF6CF6C1B8B0DFBCFCF9393
:100B6000DF93D82F4EEA56E0882311F04AE756E08B
:100B70006DE080E01FDFC2E08C2F6AE0B1D28750C9
:100B800042E556E0DC1710F44AE256E06AE012DF74
:100B9000CF5FC73089F74EE056E067E08FE3DF9123
:100BA000CF9108CFE0918200E13148F4EF5FE0930C
:100BB0008200F0E0E059FF4F808381E0089580E0FB
:100BC000089510928200880F809370000895C09A53
:100BD000C29ABA9AB89A8FEF8FB98AE28DB980EF2C
:100BE0008EB908958F929F92AF92BF92EF92FF922B
:100BF0000F931F93CF93DF93CDB7DEB7A1970FB6B7
:100C0000F894DEBF0FBECDBF162F042F19A24230BD
:100C100008F40AE07E0121E2E20EF11C802E912C04
:100C2000B12CA12C612FA501940174D2802F622FC9
:100C300057D2181B1A303CF5105DF70112937F0153
:100C4000122F732FCA01232B242B252B59F7019028
:100C50000020E9F73197AF014E195F09B7018CE920
:100C600090E0EADDA1960FB6F894DEBF0FBECDBFCF
:100C7000DF91CF911F910F91FF90EF90BF90AF90B8
:100C80009F908F900895195CD8CFC29AC29BFECFD7
:100C90008DE08A95F1F70000C0988AE08A95F1F717
:100CA00000C0C298C09A779905C083E080938A00FB
:100CB00080E0089581E008958EB98BE29DE09A95D9
:100CC000F1F700008DB9B29BFECF9AE09A95F1F74B
:100CD00000C08DB9769BF2CF8DE08A95F1F70000C8
:100CE0008FB19FEF9FB9B89A0895CF92DF92EF929C
:100CF000FF920F931F93CF93DF930091820081E0C7
:100D000080938A008091700080FD03C083E080930F
:100D10008A00BBDF882311F10F5F102FC0E7D0E0FE
:100D2000DD24DA94CC24C3947E018FEFE81AF80A0C
:100D300080918A00837009F447C0C29888818FB976
:100D400080EFBADFB8988EEFB7DF90918A0080FF0E
:100D500010C081E090FF82E080938A0010928200B0
:100D6000DF91CF911F910F91FF90EF90DF90CF9087
:100D70000895892F8570843061F4809170008160BE
:100D800080937000C0928A0080DF811129C08AE0C0
:100D9000E3CF9E7F90938A00E701115029F61092CD
:100DA0008200C098C29AB29BFECF8AE08A95F1F782
:100DB00000C0C09A8DE08A95F1F700007599D0CFF8
:100DC00084E080938A00CCCFB89880EF75DF888369
:100DD000113021F4DFB88EEF6FDFDECF1FB8FBCF0D
:100DE000102FC0E7D0E0D9CF1F920F920FB60F920D
:100DF00011242F933F938F939F93AF93BF93809131
:100E00008C0090918D00A0918E00B0918F00309158
:100E10008B0026E0230F2D3768F129E8230F039676
:100E2000A11DB11D20938B0080938C0090938D00A9
:100E3000A0938E00B0938F008091900090919100CC
:100E4000A0919200B09193000196A11DB11D8093D5
:100E5000900090939100A0939200B0939300BF9163
:100E6000AF919F918F913F912F910F900FBE0F9057
:100E70001F9018950296A11DB11DD4CF1F920F92FD
:100E80000FB60F9211248F939F93C39A8FB590E062
:100E900090939B0080939A009F918F910F900FBE2B
:100EA0000F901F9018951F920F920FB60F9211245A
:100EB0008F939F93C3988FB590E090939900809300
:100EC00098009F918F910F900FBE0F901F901895D3
:100ED00081B781BF8AB582608ABD8AB581608ABDCB
:100EE00083B7887F836083BF789489B7826089BF26
:100EF00080B7807F80BF80B7806880BF80B7806404
:100F000080BF8CB580648CBD8FEF8DBD80B787604E
:100F100080BF86B18877866886B9379AC398BB9AAE
:100F2000F8948AE080BF89B7806689BF789482E3AD
:100F30008EBD8EEF8BBD82E087B987E886B9369A81
:100F40008AE690E09093950080939400E09196005B
:100F5000F0919700099507DDC2EED6E08AEEE82E03
:100F600086E0F82EFE011491812FE3DC811104C08C
:100F7000DBDCF9DC812FDDDC2196EC16FD0691F738
:100F8000D3DC4BDD80E0EBDDEEDC8FEAD2DCCCDCC9
:100F90008091610094E089278093610062E370E0B2
:100FA00080E090E097DC39DDC0E014E04AE657E0ED
:100FB00060E280E6FFDC8C2FD2DDD091600080E221
:100FC000D827D0936000CFDC8D2FB3DCADDC8091CF
:100FD00061008127809361006CE271E080E090E025
:100FE00079DCCF5FC73011F714E04AEE56E060E2DB
:100FF00080E6E0DCC1508C2FB2DDD091600080E251
:10100000D827D0936000AFDC8D2F93DC8DDC8091EE
:1010100061008127809361006CE271E080E090E0E4
:1010200059DCC111E2CF10E2D4E03699FECF369AF6
:101030003699FECF84B185B1F0DC60919A00709151
:101040009B0090E080E04AE0CDDD62E080E094DC4F
:10105000609198007091990090E080E04AE0C2DDD4
:1010600010929B0010929A00109299001092980092
:10107000C0916000C127C093600075DC8C2F59DCE3
:1010800053DC809161008D278093610064EF71E0F3
:1010900080E090E01FDCC9CFECE9F0E0138212821F
:1010A00086E690E0918380838CE38093890087EECD
:1010B00095E0909397008093960081EE95E0909351
:1010C00088008093870082ED95E090938400809360
:1010D000830085E796E090938600809385000895CD
:1010E000002480FD060E660F11F08695D1F7802D45
:1010F00008950024552704C0080E591F880F991F12
:10110000009729F076956795B8F37105B9F7802DAA
:10111000952F0895A1E21A2EAA1BBB1BFD010DC03D
:10112000AA1FBB1FEE1FFF1FA217B307E407F50797
:1011300020F0A21BB30BE40BF50B661F771F881F73
:10114000991F1A9469F760957095809590959B0109
:10115000AC01BD01CF010895EE0FFF1F0590F49182
:08116000E02D0994F894FFCF83
:1011680040B0000000003E051C041E000802207E5E
:00000001FF
