:1000000051C075C074C073C072C0B2C470C06FC03C
:100010006EC06DC06CC06BC06AC069C068C00000B3
:10002000000036000000000037000000000038002B
:100030000202020202020102040810200102000072
:1000400004007FFFC0DFDFDFDFDFDFDFDFDFC0DFF8
:10005000DFDFDFDFDFDFDFDFC0DFDFDFDFDFDFDFCF
:10006000DFDFFFFF00FFFFFFFFFFFFFFFFFF00FFDE
:10007000FFFFFFFFFFFFFFFF00FFFFFFFFFFFFFF8F
:10008000FFFFFEFF03FBFBFBFBFBFBFBFBFB03FBA1
:10009000FBFBFBFBFBFBFBFB03FBFBFBFBFBFBFBA8
:1000A000FBFB720511241FBECFE5D2E0DEBFCDBF42
:1000B00010E0A0E6B0E0E0E9FBE002C005900D92A0
:1000C000AE3DB107D9F721E0AEEDB0E001C01D9221
:1000D000AA32B207E1F710E0C2E5D0E003C02197F1
:1000E000FE014ED5C135D107D1F78CD44FC588CF8D
:1000F0001F93CF93DF9300D000D01F92CDB7DEB710
:100100001C8221E02B839A838983E091F300F09194
:10011000F40011891D82A091F300B091F400E091E8
:10012000F700F091F8009E012F5F3F4F50964C91E1
:100130006FE083EF90E009958D818F5F8D8381174C
:1001400050F30F900F900F900F900F90DF91CF9181
:100150001F9108959B01DC011896ED91FC9141E0FF
:1001600067E10994813021F48AB58F778ABD0895BB
:10017000823019F48AB58F7DF9CF833021F480B7AE
:100180008F7D80BF0895843019F48CB58F7D8CBD30
:1001900008951F93CF93DF93162F87FF09C08F77A2
:1001A00071F1813071F1823071F1833071F18FEF33
:1001B000282F30E0F901E45CFF4F8491F901EA5CFB
:1001C000FF4FD491F901E05DFF4FC491CC2399F02A
:1001D0008111C8DFEC2FF0E0EE0FFF1FE65DFF4F4F
:1001E000A591B4918FB7111112C0F894EC91D095EC
:1001F000DE23DC938FBFDF91CF911F91089585E0BF
:10020000D7CF82E0D5CF84E0D3CF83E0D1CFF894AD
:10021000EC91DE2BEECFCF93DF9387FF09C08F7772
:1002200079F1813079F1823079F1833079F18FEF92
:1002300090E0FC01EA5CFF4F2491805D9F4FFC0140
:1002400084918823D1F090E0880F991FFC01EC5D28
:10025000FF4FA591B491FC01E65DFF4FC591D4918C
:100260006230B1F49FB7F8943C91822F809583233C
:100270008C93E8812E2B28839FBFDF91CF91089527
:1002800085E0D6CF82E0D4CF84E0D2CF83E0D0CF58
:100290008FB7F894EC912E2B2C938FBFEECF3FB7F6
:1002A000F8948091E3009091E400A091E500B09172
:1002B000E60022B708B601FE05C02F3F19F00196EF
:1002C000A11DB11D3FBFBA2FA92F982F8827BC01B0
:1002D000CD01620F711D811D911D43E0660F771FD7
:1002E000881F991F4A95D1F7089580E00895DC0191
:1002F0001A96ED91FC9130E020E009940F931F9342
:10030000CF93DF9300D000D01F92CDB7DEB76C83C0
:100310004D832B831A830983DC011496ED91FC91A4
:100320009E012F5F3F4F41E06FE009950F900F90C6
:100330000F900F900F90DF91CF911F910F91089523
:10034000EF92FF920F931F93CF93DF93D82F7B01F0
:10035000C0E0A7EEB0E090E080E0FC01EE0DFF1DF4
:10036000E491ED93019688309105B9F707EE10E01E
:1003700021E04D2F6C2F83EF90E0C0DFCF5F88E04E
:10038000E80EF11CC43029F7DF91CF911F910F9136
:10039000FF90EF900895DC011696ED91FC9130E00E
:1003A00020E040E069E10994DC011696ED91FC91B2
:1003B00030E020E040E068E109949A01DC01169603
:1003C000ED91FC91462F67E10994EF92FF920F9314
:1003D0001F93CF93DF931F92CDB7DEB77C018B01C4
:1003E000D8016C91673121F150F4653198F40F9088
:1003F000DF91CF911F910F91FF90EF9008956A3197
:1004000008F16E3FA1F7F8014181498369E2C70114
:100410006EDF0BC0F80141814983D7011696ED913B
:10042000FC9130E020E0C70109950E5F1F4FD8CF47
:10043000F80181818983AE014F5F5F4F61E0C701A1
:10044000BCDFF3CF0F5F1F4FD7011696ED91FC91E4
:1004500030E020E040E0C7010995C2CF462FDC0123
:100460001696ED91FC9130E020E066E10994462F6C
:10047000DC011696ED91FC9130E020E065E10994F5
:10048000EF92FF920F931F93CF93DF93EC01042F12
:100490007901693069F485EC90E0998388831C8A3E
:1004A00081E0DF91CF911F910F91FF90EF90089520
:1004B0006D3009F469C038F46A3069F16B3009F4C1
:1004C0005CC080E0EECF6E3009F46FC06F30C9F7CA
:1004D0006BDFF7011381110F110F110F6C89160FCC
:1004E000612F62956F706061CE01C1DF612F6F7007
:1004F000CE01BDDFF7016481606BCE01B8DFF7018B
:10050000408151816281660F660F660FCE0155DF13
:100510000150A9F751C0EA85FB8530E020E040E0BA
:1005200068E20995EE81FF8130E020E040E064E17F
:10053000CE01099541E06BE4CE01D9DEE881F98175
:10054000448169E2CE01D3DE40E06BE4CE01CFDE30
:10055000E881F981448169E2CE01C9DE41E06BE4C2
:10056000CE01C5DEE881F981458169E2CE01BFDEB9
:1005700060E970E0CE0129DF93CF6BE870E044239F
:10058000C9F366E870E0F6CF411108C06FE770E08C
:100590001CDFE881F98182898C8B82CF68E770E06B
:1005A00014DFE881F9818389F7CFFEDE61E8CE01AF
:1005B0005EDF602FCE0152DFCE01EDDE71CFDC01B8
:1005C0001896ED91FC9130E020E040E069E109945B
:1005D000DC011896ED91FC9130E020E040E068E10C
:1005E0000994CF93DF931F92CDB7DEB76983BE0125
:1005F0006F5F7F4FAFDD0F90DF91CF910895EF9246
:10060000FF921F93CF93DF93EC01162F7A01E0DF67
:1006100060E4CE01E6DFE885F9859701412F67E1C7
:10062000CE010995CE01DF91CF911F91FF90EF9000
:10063000C6CFEF92FF921F93CF93DF93EC01142F5D
:100640007901673130F4653178F4643129F180E063
:1006500005C06731D1F06A31D0F781E0DF91CF91E9
:100660001F91FF90EF900895B3DF60E0CE01B9DFF6
:10067000612FCE01B6DFCE01A2DFEFCF68E1CE0160
:10068000BEDF185188E1E80EF11CA7011931B0F75F
:10069000612FCE01B4DFE1CF8E898F3F11F488E75F
:1006A0008E8BE885F9859701412F64E1CE01DF91BA
:1006B000CF911F91FF90EF900994CF93DF93DC01CE
:1006C0005096ED91FC91519784913196E491681781
:1006D00068F1E61758F1681B770B83E0660F771F08
:1006E0008A95E1F7CB010296EA01665F7F4F50964B
:1006F000ED91FC915197E80FF91FE491E993019670
:1007000086179707A1F755968C91882361F0FA0117
:100710009A01285F3F4F8191DF01119780958C935B
:100720002E173F07C1F7DF91CF910895FA01CA0153
:1007300008961192E817F907E1F7E5CF81E00895EF
:10074000CF92DF92EF92FF921F93CF93DF93EC0152
:100750006C32B0F46A32D0F5683231F1693209F4A2
:100760003EC080E0603498F16F73FE01E60FF11D2A
:10077000878D8F3F59F1603108F05AC0642F12C045
:100780006D3209F44BC068F384EB860F823048F772
:100790006F73C60FD11D8F8D411147C061E03BDDE6
:1007A00060E08F8DF6DC12C07C018FE1E80EF11C59
:1007B000D0E0F70181917F018F3F29F061E0D031D6
:1007C00008F062E028DDDF5FD63199F781E0DF9144
:1007D000CF911F91FF90EF90DF90CF900895C42E9E
:1007E000D12CF12CE12C5BDDEB01C114D104E1042F
:1007F000F10441F4EBCFF1E0CF1AD108E108F108A0
:10080000C851DC4F4CDD6C1B7D0B683E734068F3B8
:10081000C114D104E104F10471F7D8CF4330B0F62C
:1008200086E090E00197F1F7D1CF62E0F4DCCECF23
:1008300087FF09C08F7741F1813041F1823041F16A
:10084000833041F18FEF282F30E0F901E45CFF4F56
:100850008491F901EA5CFF4FF490F901E05DFF4FEC
:100860001491112371F081117DDCE12FF0E0EE0F86
:10087000FF1FE25EFF4FA591B491EC91FE2281E053
:1008800009F480E08A8FA2CF85E0DDCF82E0DBCF64
:1008900084E0D9CF83E0D7CFAF92BF92CF92DF92DF
:1008A000EF92FF920F931F93CF93DF93CDB7DEB7F5
:1008B00028970FB6F894DEBF0FBECDBFFC01D2ACB7
:1008C0006A30B1F4D394D2AE11AE81E090E02896B4
:1008D0000FB6F894DEBF0FBECDBFDF91CF911F9151
:1008E0000F91FF90EF90DF90CF90BF90AF90089561
:1008F0007C01C1AC5C0184E0A80EB11CAE014F5F6D
:100900005F4FC501DADE8E010F5F1F4F21E04D2DD5
:100910006C2DC501F3DCF70181AD8F5F81AFD5CFC1
:10092000CF92DF92EF92FF920F931F93CF93DF93BB
:100930006C01EB017B01E40EF51E10E000E0CE152A
:10094000DF0561F06991D601ED91FC910190F08194
:10095000E02DC6010995080F191FF1CFC801DF91DD
:10096000CF911F910F91FF90EF90DF90CF9008955E
:100970001F920F920FB60F9211242F933F938F93D4
:100980009F93AF93BF938091DF009091E000A0917F
:10099000E100B091E2003091DE0026E0230F2D3718
:1009A00068F129E8230F0396A11DB11D2093DE00F5
:1009B0008093DF009093E000A093E100B093E20009
:1009C0008091E3009091E400A091E500B091E600F1
:1009D0000196A11DB11D8093E3009093E400A093C4
:1009E000E500B093E600BF91AF919F918F913F9149
:1009F0002F910F900FBE0F901F9018950296A11D7A
:100A0000B11DD4CFCF93DF93CDB7DEB760970FB6CC
:100A1000F894DEBF0FBECDBF81B781BF8AB58260BB
:100A20008ABD8AB581608ABD83B7887F836083BFB2
:100A3000789489B7826089BF80B7807F80BF80B794
:100A4000806880BF80B7806480BF8CB580648CBDB7
:100A50008FEF8DBD80B7876080BF86B1887786684D
:100A600086B9379AE091F700F091F80030E020E085
:100A700040E06AE083EF90E00995CE0101967C01A9
:100A800088E0F70111928A95E9F7C70131DBE0911F
:100A9000F700F091F80030E020E040E06BE083EFF9
:100AA00090E0099580E1E0E6F0E0D70101900D9239
:100AB0008A95E1F7870122E040E066E083EF90E06D
:100AC0001DDC62E870E080E03BDC62E670E081E023
:100AD00037DC62E670E082E033DC62E470E083E001
:100AE0002FDCE0CFCF931092F2001092F100109221
:100AF00028011092290184E790E09093F000809300
:100B0000EF001092F4001092F3001092080110927E
:100B10000B0110920C018FEF8093090180930E015D
:100B2000E2E1F1E088E291E0CFEFC1938E179F07F9
:100B3000E1F780E492E09093F8008093F70089E178
:100B400093E09093FA008093F9008EE993E09093FC
:100B5000FC008093FB0080EA93E09093FE0080937A
:100B6000FD0030E020E040E069E083EF90E088DCC9
:100B7000C0931D01C0931E01C0931F01CF91089522
:100B8000EE0FFF1F0590F491E02D0994F894FFCF2C
:100B90000F0F0F0FF0F0F0F00103070F1F3F7FFF63
:100BA000000000004C0490041815A015C019FF188F
:100BB00015A115C819FF1815AE19FF1815AF19FFA3
:100BC0001815AE15D5168015A8161F15D3160015C5
:100BD00040158D16141520160015A115C815DA1626
:100BE000021581168F15D916F115DB1640152E1535
:100BF000A415A619FF0001140A6464323200127AA7
:0E0C0000000004289610040000800020000070
:00000001FF
