:10000000F5C319C418C451C716C4FAC614C413C41E
:1000100012C440C710C40FC40EC40DC40CC40000E9
:1000200000000000000000000000000000000000D0
:1000300000F8000000000000003330000000001055
:100040000C06100C0600000000000000000040C07C
:100050007840C0784000043F04043F04040000706E
:1000600088FC08300000001820FF211E0000F00866
:10007000F000E018000000211C031E211E0000F00B
:100080000888700000001E21232419272110101653
:100090000E00000000000000000000000000000052
:1000A00000E01804020000000007182040000002D1
:1000B0000418E00000000040201807000000404045
:1000C00080F0804040000202010F010202000000A7
:1000D00000F0000000000101011F0101010000000B
:1000E00000000000000080B0700000000000000070
:1000F00000000000000000010101010101010000F9
:10010000000000000000003030000000000000008F
:10011000000080601804006018060100000000E084
:1001200010080810E000000F102020100F00001031
:1001300010F8000000000020203F20200000007088
:100140000808088870000030282422213000003080
:100150000888884830000018202020110E00000078
:10016000C02010F8000000070424243F240000F8F9
:100170000888880808000019212020110E0000E0DE
:10018000108888180000000F112020110E00003880
:100190000808C83808000000003F00000000007098
:1001A000880808887000001C222121221C0000E021
:1001B00010080810E0000000312222110F0000009A
:1001C00000C0C0000000000000303000000000004F
:1001D00000800000000000008060000000000000BF
:1001E0008040201008000001020408102000404058
:1001F000404040404000040404040404040000089B
:10020000102040800000002010080402010000704F
:1002100048080808F0000000003036010000C03037
:10022000C828E810E0000718272423140B0000005A
:10023000C038E0000000203C23020227382008F8E4
:10024000888888700000203F202020110E00C030D8
:10025000080808083800071820202010080008F8AF
:1002600008080810E000203F202020100F0008F8A8
:100270008888E8081000203F20202320180008F874
:100280008888E8081000203F200003000000C030EC
:1002900008080838000007182020221E020008F86D
:1002A00008000008F808203F210101213F20000834
:1002B00008F8080800000020203F2020000000006F
:1002C0000808F8080800C08080807F00000008F857
:1002D00088C028180800203F20012638200008F890
:1002E000080000000000203F20202020300008F8F7
:1002F000F800F8F80800203F003F003F200008F811
:1003000030C00008F808203F200007183F00E01028
:1003100008080810E0000F10202020100F0008F837
:1003200008080808F000203F210101010000E0104A
:1003300008080810E0000F18242438504F0008F86F
:10034000888888887000203F2000030C30200070CF
:100350008808080838000038202121221C001808CD
:1003600008F8080818000000203F2000000008F8E6
:1003700008000008F808001F202020201F0008782F
:10038000880000C83808000007380E010000F8088F
:1003900000F80008F800033C0700073C03000818B9
:1003A00068808068180820302C03032C302008381F
:1003B000C800C83808000000203F200000001008D6
:1003C0000808C8380800203826212020180000001E
:1003D00000FE020202000000007F40404000000CCE
:1003E00030C000000000000000010638C00000021C
:1003F0000202FE000000004040407F0000000000BC
:1004000004020202040000000000000000000000DE
:1004100000000000000080808080808080800002DA
:1004200002040000000000000000000000000000C6
:100430008080808000000019242222223F2008F8BA
:10044000008080000000003F112020110E000000FD
:10045000008080800000000E11202020110000008C
:1004600000808088F800000E112020103F2000003E
:10047000808080800000001F222222221300008042
:1004800080F0888888180020203F2020000000008D
:10049000808080808000006B94949493600008F8C2
:1004A000008080800000203F210000203F2000804D
:1004B0009898000000000020203F2020000000004D
:1004C00000809898000000C08080807F000008F8BD
:1004D000000080808000203F24022D302000000892
:1004E00008F8000000000020203F2020000080804D
:1004F000808080808000203F20003F20003F80805F
:10050000008080800000203F210000203F2000006C
:10051000808080800000001F202020201F0080801D
:1005200000808000000080FFA12020110E0000004C
:10053000008080808000000E112020A0FF8080803D
:1005400080008080800020203F21200001000000EA
:1005500080808080800000332424242419000080BF
:1005600080E0808000000000001F202000008080CC
:10057000000000808000001F202020103F2080808D
:1005800080000080808000010E300806010080801D
:100590000080008080800F300C030C300F00008042
:1005A0008000808080000020312E0E31200080806D
:1005B00080000080808080818E701806010000809D
:1005C0008080808080000021302C222130000000BB
:1005D0000000807C020200000000003F404000005C
:1005E0000000FF00000000000000FF00000000020B
:1005F000027C800000000040403F00000000000638
:100600000101020204040000000000000000FFFEDF
:100610000000000000FFFFFEFEFEFEFCFFFF7F7FEC
:100620007F7F3FFF7F0000000000030303030303FD
:1006300003030303000000000000000000000000AE
:100640000000000000000000C0C0C0C0C0C0C0C0AA
:10065000C0C0FBFBFBFBFBFBFBFBFB03FFFFFFFF48
:10066000FFFFFFFFFF00FFFFFFFFFFFFFFFFFF0098
:10067000DFDFDFDFDFDFDFDFDFC0FEFF03FBFBFBF2
:10068000FBFBFBFBFBFB03FFFF00FFFFFFFFFFFF8D
:10069000FFFFFF00FFFF00FFFFFFFFFFFFFFFFFF68
:1006A000007FFFC0DFDFDFDFDFDFDFDFDFC0FEFF78
:1006B0000303030303030303030303FFFF0000001B
:1006C0000000000000000000FFFF0000000000002C
:1006D00000000000007FFFC0C0C0C0C0C0C0C0C0DC
:1006E000C0C0C8A1A81FDA028D14FCFE07030303D3
:1006F00003030303030383C3E3830303030303032A
:100700000303030303030307FEFCFFFF00000000D5
:10071000040E1E3E3F7F77E3E3C18000000000002F
:100720000000000000000000FFFFFFFF00000000CD
:100730000000000000000000010103070F0E1C383C
:1007400070C0800000000000FFFF3F7FE0C0C0C01D
:10075000C0C0C0C0C0C0C0C0C0C0C0C0C0C0C0C099
:10076000C0C0C1C5C4C0C0E07F3F000080C0F0F081
:10077000F8FCFC7E3E3F1F1F1F1F1F1F1F1F3FBE99
:10078000FEFCFCF8F0F0C0800000F8FEFFFFFF0F59
:100790000301000000000080C0E0F0F8FCFE7F3F95
:1007A0001F0F07030FFFFFFFFEF81F7FFFFFFFF084
:1007B000C0E0F0F8FCFE7F3F1F0F070301000000C0
:1007C000000080C0F0FFFFFF7F1F000001030F0F3C
:1007D0001F3F3F7F7DFCF8F8F8F8F8F8F8F8FC7C4C
:1007E0007E3F3F1F0F0F03010000C30811241FBEEF
:1007F000CFE5D2E0DEBFCDBF20E0A0E7B0E001C092
:100800001D92A03AB207E1F710E0A0E6B0E0E2E105
:10081000F2E102C005900D92A037B107D9F713E0BD
:10082000C6EFD3E003C02197FE01EBD4C53FD1074B
:10083000D1F746D3ECC4E4CBCF92DF92EF92FF9294
:100840000F931F93CF93DF936C01EB017B01E40EB9
:10085000F51E10E000E0CE15DF0561F06991D601CC
:10086000ED91FC910190F081E02DC6010995080FF2
:10087000191FF1CFC801DF91CF911F910F91FF9008
:10088000EF90DF90CF9008953FB7F894809190005B
:1008900090919100A0919200B091930022B708B678
:1008A00001FE05C02F3F19F00196A11DB11D3FBFEC
:1008B000BA2FA92F982F8827BC01CD01620F711D77
:1008C000811D911D43E0660F771F881F991F4A9570
:1008D000D1F70895CF92DF92EF92FF92CF93DF93FB
:1008E0006B017C01D1DFEB01CFDF6C1B7D0B683E20
:1008F0007340A0F0C114D104E104F10439F4DF9194
:10090000CF91FF90EF90DF90CF90089581E0C81ACB
:10091000D108E108F108C851DC4FE6CFC114D10479
:10092000E104F10409F7EBCFE0918500F091860036
:100930000994E0918300F09184000994E09187008C
:10094000F091880080918900099580E4F2CFCF93DF
:10095000C82FEFDF811105C0E7DFF0DF8C2FCF91CB
:10096000E8CFCF910895E0918700F09188008091C1
:100970008900099580E0DDCF1F93CF93DF93C82FC7
:10098000162FD62FD77080916100D82BECDF8D2FDA
:10099000D0DF8C2F82958F708061CBDF8C2F8F7092
:1009A000C8DFC2DFC0939F0010939E00DF91CF91FC
:1009B0001F910895AF92BF92CF92DF92FF920F9353
:1009C0001F93CF93DF93D82F6A0110E000E0C0E0BF
:1009D000860F9927991F5C016C2F8D2FCDDFAEDF1D
:1009E000FD2EFA141B044CF4F601E00FF11F849164
:1009F000AEDFF3940F5F1F4FF4CF96DFCF5FC430AD
:100A000059F760E080E0DF91CF911F910F91FF9047
:100A1000DF90CF90BF90AF90AFCF1F93CF93DF9376
:100A2000C0E010E86C2F80E0A7DF80919F00D12FFD
:100A3000D81B10939F0082DF80E089DFD150E1F75F
:100A400073DFCF5FC43071F760E080E0DF91CF915A
:100A50001F9192CF80919E00860F24E030E0261BEC
:100A600031098217130609F034F480939E006091D7
:100A70009E0080E081CF84E0861BF7CFBF92CF92AB
:100A8000DF92EF92FF920F931F93CF93DF93E0914A
:100A90009400F0919500309741F06D3031F0D62FF1
:100AA000C3816A3071F46C2FD5DF81E090E0DF9173
:100AB000CF911F910F91FF90EF90DF90CF90BF905B
:100AC0000895B28040919F00EB2CF12C20E830E09B
:100AD0002E193F094217130619F014F06C2FBADFD4
:100AE000E0919400F091950024818C2F90E0B70163
:100AF00077D3BC014D2F421B550BCA0171D38C011A
:100B0000DC2F1CDFC801282F201B2B1588F46C015B
:100B10005FEFC51AD50AE0919400F091950001901D
:100B2000F081E02DE80FF91F849111DFC601EBCFB2
:100B30000E0D1F1DF9DE80919F00C13031F48B0D29
:100B400080939F00D150E9F6B0CF60919E006F5F17
:100B5000D23010F011DFF6CF6C1B8B0DFBCFCF9393
:100B6000C091600080E2C827C0936000FCDE8C2F3B
:100B7000E0DEDADE8091610094E0892780936100F5
:100B8000CF91089510929800F89410BE7894C3986D
:100B900065E070E080E090E09DDEC39808953699AE
:100BA000FECF20E290E080E0369A3699FECF34B155
:100BB00045B1542F432F840F951F2150A9F725E0ED
:100BC000969587952A95E1F708950FB6F894A8951C
:100BD00081B5886181BD11BC0FBE08950F931F932D
:100BE000CF93DF9386B3C1E0D82FD27081FFC0E0EE
:100BF0006AE070E080E090E06DDE86B381FB002764
:100C000000F910E0C017110619F0C1E0D111C0E0E1
:100C10008C2FDF91CF911F910F910895CF93DF9388
:100C2000D82F4EEA56E0882311F04AE756E06DE0EF
:100C300080E0C0DEC2E08C2F6AE0C9D2875042E576
:100C400056E0DC1710F44AE256E06AE0B3DECF5F0C
:100C5000C73089F74EE056E067E08FE3DF91CF9130
:100C6000A9CEE0918200E13148F4EF5FE093820089
:100C7000F0E0E059FF4F808381E0089580E008951F
:100C800010928200880F809370000895C09AC29AD3
:100C9000BA9AB89A8FEF8FB98AE28DB980EF8EB980
:100CA0000895C29AC29BFECF8DE08A95F1F70000AD
:100CB000C0988AE08A95F1F700C0C298C09A7799E7
:100CC00005C083E080938A0080E0089581E0089564
:100CD0008EB98BE29DE09A95F1F700008DB9B29B39
:100CE000FECF9AE09A95F1F700C08DB9769BF2CFCE
:100CF0008DE08A95F1F700008FB19FEF9FB9B89A08
:100D00000895CF92DF92EF92FF920F931F93CF93AC
:100D1000DF930091820081E080938A0080917000CF
:100D200080FD03C083E080938A00BBDF882311F13C
:100D30000F5F102FC0E7D0E0DD24DA94CC24C394F9
:100D40007E018FEFE81AF80A80918A00837009F417
:100D500047C0C29888818FB980EFBADFB8988EEF0C
:100D6000B7DF90918A0080FF10C081E090FF82E0A1
:100D700080938A0010928200DF91CF911F910F9192
:100D8000FF90EF90DF90CF900895892F8570843089
:100D900061F480917000816080937000C0928A003D
:100DA00080DF811129C08AE0E3CF9E7F90938A0083
:100DB000E701115029F610928200C098C29AB29BA6
:100DC000FECF8AE08A95F1F700C0C09A8DE08A953F
:100DD000F1F700007599D0CF84E080938A00CCCFE2
:100DE000B89880EF75DF8883113021F4DFB88EEF7B
:100DF0006FDFDECF1FB8FBCF102FC0E7D0E0D9CF19
:100E00001F920F920FB60F9211242F933F938F933F
:100E10009F93AF93BF9380918C0090918D00A09190
:100E20008E00B0918F0030918B0026E0230F2D377C
:100E300068F129E8230F0396A11DB11D20938B00B3
:100E400080938C0090938D00A0938E00B0938F00C0
:100E50008091900090919100A0919200B0919300A8
:100E60000196A11DB11D8093900090939100A093D5
:100E70009200B0939300BF91AF919F918F913F915A
:100E80002F910F900FBE0F901F9018950296A11DE5
:100E9000B11DD4CF1F920F920FB60F921124C39A97
:100EA0000F900FBE0F901F9018951F920F920FB6C4
:100EB0000F921124C3980F900FBE0F901F9018959A
:100EC00081B781BF8AB582608ABD8AB581608ABDDB
:100ED00083B7887F836083BF789489B7826089BF36
:100EE00080B7807F80BF80B7806880BF80B7806414
:100EF00080BF8CB580648CBD8FEF8DBD80B787605F
:100F000080BF86B18877866886B9379AC398BB9ABE
:100F1000B998C19A5ADE82E087B987E886B9369ACD
:100F20008AE690E09093950080939400E09196007B
:100F3000F0919700099517DDC2EED6E05AEEE52E46
:100F400056E0F52EFE011491812FF3DC811104C0CF
:100F5000EBDC09DD812FEDDC2196EC16FD0691F727
:100F6000E3DC5BDD80E05ADEFEDC8FEAE2DCDCDC29
:100F70008091610094E089278093610062E370E0D2
:100F800080E090E0A7DC49DD29DE81110BC04AE654
:100F900057E060E280E60EDDE2DD64EF71E080E0C4
:100FA00090E098DC1BDE811105C064E670E080E013
:100FB00090E0F7CFF89480E181BD8EE081BD789418
:100FC000D1E010E80FEF4AE0B42EA895E8DDB0E0DC
:100FD000A0E06C017D0137E0CC0CDD1CEE1CFF1C99
:100FE0003A95D1F786E0F4E3CF16DF06F1E0EF069D
:100FF000F10470F585E020E1C21629E2D20621E075
:10100000E206F10428F58CEEC8168DE1D80681E0E1
:10101000E806F10408F079C083E098ECC91692E183
:10102000D90691E0E906F10498F482E0ECE5CE16E9
:10103000EBE0DE06E1E0EE06F10450F481E0FCEEC8
:10104000CF16F3E0DF06F1E0EF06F10408F480E0EC
:1010500090919900981307C02CECC2162EEDD20681
:10106000E104F104B8F480939900D8DD4AE657E032
:101070008CECC8168EEDD806E104F10410F04AEEAF
:1010800056E060E280E696DC6ADD62E370E080E0D4
:1010900090E020DCA3DD8823D1F174DDFCECCF16D9
:1010A000FEEDDF06E104F10408F08FCF6BDD8DDD8E
:1010B000C39880E0B3DD4AE657E060E280E67ADC80
:1010C0004EDD6CE271E080E090E004DCC0E06C2F6B
:1010D00080E052DC80919F008A5B80939F002EDC31
:1010E000D6E480E034DCD150E1F71EDCCF5FC430C1
:1010F00071F74AE657E060E280E65CDC30DD68E5E7
:1011000072E080E090E0E6DBD3CF84E0A1CF809175
:101110009800813019F2F8941EBD0BBDB0BE89B79E
:10112000806689BF78946EE170E080E090E0D2DB69
:10113000C2E8A895CEBD69E170E080E090E0CADB2E
:101140002EDDB0E0A0E027E0880F991FAA1FBB1F8B
:101150002A95D1F78C3C9E4DA105B10508F49DCF91
:101160003DDD81119ACFCB5FCC3D19F7F89410BECD
:101170007894C39A65E070E080E090E0ABDBC39ABE
:10118000D09398008BCFEAE9F0E01382128286E6D2
:1011900090E0918380838CE38093890086E496E0DD
:1011A000909397008093960080E496E09093880057
:1011B0008093870081E396E090938400809383007E
:1011C00081E896E09093860080938500089500243E
:1011D00080FD060E660F11F08695D1F7802D0895DB
:1011E0000024552704C0080E591F880F991F009727
:1011F00029F076956795B8F37105B9F7802D952F8D
:101200000895EE0FFF1F0590F491E02D0994F894D6
:02121000FFCF0E
:1012120040B0000000003E051C041E000802207EB3
:00000001FF
