:100000008AC0AEC0ADC0ACC0ABC0AAC0A9C0A8C0B9
:10001000A7C0FEC3A5C0A4C0A3C0A2C0A1C0A0C069
:100020009FC0E2C29DC0AED580A81FD300408D14F2
:10003000200021007F220007A1C8DA0281CFD9F178
:10004000DB40A4A6000080C0F0F0F8FCFC7E3E3F40
:100050001F1F1F1F1F1F1F1F3FBEFEFCFCF8F0F0DD
:10006000C0800000F8FEFFFFFF0F0301000000004A
:100070000080C0E0F0F8FCFE7F3F1F0F07030FFF7A
:10008000FFFFFEF81F7FFFFFFFF0C0E0F0F8FCFE6F
:100090007F3F1F0F070301000000000080C0F0FF3A
:1000A000FFFF7F1F000001030F0F1F3F3F7F7DFCFD
:1000B000F8F8F8F8F8F8F8F8FC7C7E3F3F1F0F0FCF
:1000C000030100000000000000000000000405071C
:1000D0000000000000000000000000010204081001
:1000E0002040800102040810200102040810204072
:1000F0008040040404040404040402020202020214
:100100000303030303030202030000000038003569
:10011000003200003D0211241FBECFE5D4E0DEBF57
:10012000CDBF10E0A0E6B0E0E6E8F9E002C005903F
:100130000D92A237B107D9F721E0A2E7B0E001C0E4
:100140001D92AF33B207E1F710E0CBE8D0E003C077
:100150002197FE0110D4CA38D107D1F702D411C4B7
:100160004FCF0FB6F894A89581B5886181BD11BCB9
:100170000FBE08950895682F82E790E0F7C06CE302
:1001800082E790E05CD180E4F6CF6CE382E790E018
:1001900056D160E082E790E0E9C0CF93DF93F5DFCE
:1001A000C6E2D0E0FE01649182E790E0DFD02196C4
:1001B000F0E0C434DF07B1F782E790E0DF91CF9140
:1001C0005AC1CF93C82FE1DF6C2F82E790E0CED0E9
:1001D00082E790E0CF914FC1CF93C82F8F70F1DFAE
:1001E0008C2F82958F708061CF91EBCF806BE9CFA0
:1001F000CF93DF93C0E080E0EFDF8C2FF7DFBFDF2E
:10020000D0E060E082E790E0B1D0DF5FD038C9F79E
:1002100082E790E030D1CF5FC43069F780E0DCDF67
:1002200080EBDF91CF91CDCFC198B99A8A98929AFD
:10023000C29ABA9A96DF82E790E0F2D0AEDF80EC05
:1002400087B986E886B9369AD3DF8FEABADF80E0CD
:10025000C3DF80EBB6DFC0E0F12CE12C8CE3BCDF28
:100260008C2FC4DF8CDF10E000E0C7018C5B9F4F58
:100270006C01F601E00FF11F649182E790E076D007
:100280000F5F1F4F00321105A1F790E2E90EF11C3C
:1002900082E790E0F0D0CF5FC43001F780E09CDFD0
:1002A00080EB8FDFFFCF90E080E008958091A60083
:1002B0009091A700891B990B08959091A7008091B8
:1002C000A6002FEF3FEF981748F4E92FF0E0E8552C
:1002D000FF4F208130E09F5F9093A700C9010895F0
:1002E000E091A7008091A600E81730F4F0E0E8550F
:1002F000FF4F808190E008958FEF9FEF089508955C
:10030000CF93DF93EC01E0917E00F0917F00309776
:10031000F1F09091A7008091A6009817C0F090E0AE
:10032000292F30E02617370754F4DE01A20FB31F40
:100330004C9128553F4FD9014C939F5FF1CF1092BC
:10034000A7006093A600CB01DF91CF910994DF91C4
:10035000CF910895E0918000F0918100309729F0CD
:10036000109284001092830009940895CF93DF9334
:100370001F92CDB7DEB76983209182002223F9F066
:1003800020918300203258F021E030E0FC013383DB
:10039000228390E080E00F90DF91CF9108958091CB
:1003A0008400E82FF0E0EB57FF4F998190838F5F37
:1003B000809384008093830081E090E0ECCF61E043
:1003C000CE010196D3D0F8CFCF92DF92EF92FF9279
:1003D0000F931F93CF93DF937C01CB018A01209170
:1003E0008200222389F0EB016B01C40ED51ECC15CF
:1003F000DD0561F06991D701ED91FC910190F081EB
:10040000E02DC7010995F3CF642FB0D0C801DF916B
:10041000CF911F910F91FF90EF90DF90CF900895B3
:100420001092A7001092A6001092840010928300F0
:1004300035D08AEA91E0C6D080E891E0BEC081E084
:10044000809382006093A500109284001092830034
:1004500008950F93062F21E04091830065E870E036
:100460008091A5002FD010928400109283001092EA
:1004700082000F91089561E0ECCFE2E7F0E0138293
:10048000128288EE93E0A0E0B0E084839583A68397
:10049000B78384E690E091838083089510923501BC
:1004A00081E0809333011092320161E082E12BD22E
:1004B00061E083E128D20898099880E280B985E458
:1004C00086BF08950F93413208F048C090913501DE
:1004D0009111FCCF92E090933501009333019FEF8F
:1004E0009093C80010920D0140930C01362FAEE09E
:1004F000B1E0FB019E2F931B941758F11092340129
:1005000090913401880F892B8093340180913201BE
:10051000813011F5109232018091340183B906B611
:1005200003FCFACF85EC86BF222321F080913501B0
:100530008230D1F38091C8008F3F91F08091C80044
:10054000803281F08091C800803371F084E00F9197
:10055000089591919D93CECF85EEE5CF81E0F7CFC1
:1005600080E0F5CF82E0F3CF83E0F1CF2091EA0085
:10057000260F3327331F21323105ECF4209135014A
:10058000FC0190E080E0243069F082E00895A091C1
:10059000EA002191AC0144515F4FA40FB52FB11D6A
:1005A0002C930196861798F38091EA00680F609368
:1005B000EA0080E0089581E0089590932F018093F0
:1005C0002E0108959093310180933001089585EDB7
:1005D00086BF06B604FCFDCF10923501089585EC68
:1005E00086BF1092350108951F920F920FB60F9299
:1005F00011242F933F934F935F936F937F938F9328
:100600009F93AF93BF93EF93FF9381B1887F803621
:1006100009F449C0E8F5883209F4A2C018F5803120
:1006200009F498C0B8F4882309F4EFC0883009F4BD
:1006300091C0FF91EF91BF91AF919F918F917F9169
:100640006F915F914F913F912F910F900FBE0F903F
:100650001F901895883109F483C0803251F7809338
:10066000C80014C0803409F497C040F48033B9F353
:100670008833F9F68093C800B2DFDBCF803509F408
:1006800080C0883509F490C0883499F6A0DFD1CFB6
:10069000883909F487C030F5883729F050F4883656
:1006A00011F0803731F683E0809335011092C90054
:1006B00054C0883809F476C0803919F0803809F0C0
:1006C000B8CF8091C900803208F06CC0E091C900B9
:1006D00081E08E0F8093C90083B1F0E0E653FF4FB5
:1006E00080833BC0803B39F0E0F4803A09F473C06A
:1006F000883A09F09ECF84E0809335011092EB0098
:100700001092EA00E0913001F09131010995809159
:10071000EA0081110FC081E08093EA001092EC00A2
:1007200009C0803C09F46FC0883C09F46CC0883B68
:1007300009F07FCFE091EB0081E08E0F8093EB001A
:10074000F0E0E451FF4F808183B99091EB008091FC
:10075000EA0026C08091340183B985EC86BF69CF59
:1007600090910D0180910C01981748F5E0910D01D1
:1007700081E08E0F80930D01F0E0E25FFE4F8081FB
:10078000EBCFE0910D0181E08E0F80930D0183B1DD
:10079000F0E0E25FFE4F808390910D0180910C01AB
:1007A0009817D8F285E8DACFE0910D0181E08E0F3D
:1007B00080930D0183B1F0E0E25FFE4F8083809172
:1007C0003301811163CF81E08093320184EA86BFD7
:1007D000109235012ECF03DF8091C900803230F4B2
:1007E000E091C900F0E0E653FF4F10826091C9002C
:1007F00070E0E0912E01F0912F018AEC90E00995D4
:100800001092C90016CF85ECE2CF1092C8003ECFFF
:100810001F920F920FB60F9211242F933F938F9335
:100820009F93AF93BF938091370190913801A0912E
:100830003901B0913A013091360126E0230F2D376E
:1008400058F50296A11DB11D209336018093370102
:1008500090933801A0933901B0933A0180913B0104
:1008600090913C01A0913D01B0913E010196A11DE6
:10087000B11D80933B0190933C01A0933D01B09347
:100880003E01BF91AF919F918F913F912F910F901A
:100890000FBE0F901F90189529E8230F0396A11DF6
:1008A000B11DD2CF789483B7826083BF83B7816054
:1008B00083BF89B7816089BF1EBC8EB582608EBD43
:1008C0008EB581608EBD8FB581608FBD85B584602A
:1008D00085BD85B5806485BD329A319A3098379A46
:1008E0001AB80895853041F0873049F0843051F4CA
:1008F0008FB58F778FBD08958FB58F7DFBCF85B571
:100900008F7D85BD08951F93CF93DF93282F30E00F
:10091000F901EC53FF4F8491F901E552FF4FD49157
:10092000F901EE50FF4FC491CC23A1F0162F811195
:10093000D9DFEC2FF0E0EE0FFF1FE75FFE4FA59130
:10094000B4918FB7F894EC91111108C0D095DE23C3
:10095000DC938FBFDF91CF911F910895DE2BF8CFED
:100960000895A0DFFDDF60DCC0E0D0E003DC20976D
:10097000E9F346DBFBCFEE0FFF1F0590F491E02D6E
:060980000994F894FFCF7A
:1009860000000000B601E40153017F0156015D013C
:020996007001EE
:0200000002C03C
:00000001FF